:020000040000FA
:10000000A8080020D5000000E7000000E90000007B
:1000100000000000000000000000000000000000E0
:10002000000000000000000000000000EB000000E5
:100030000000000000000000ED000000EF000000E4
:10004000F1000000F1000000F1000000F1000000EC
:10005000F100000000000000F1000000F1000000CD
:100060007D010000F1000000F1000000F10000003F
:10007000F1000000F1000000F1000000F1000000BC
:10008000F1000000F1000000F1000000F1000000AC
:10009000F1000000F1000000F1000000F10000009C
:1000A000F1000000F100000000000000000000006E
:1000B0000000000000000000000000000000000040
:1000C0000348854600F032F8004800476902000006
:1000D000A8080020074802680F210A43026006486A
:1000E000804706480047FEE7FEE7FEE7FEE7FEE73B
:1000F000FEE700002405004051010000C10000009F
:1001000030B50B46014600202022012409E00D46AF
:10011000D5409D4205D31D469540491B2546954037
:1001200040191546521E002DF1DC30BD064C01254C
:10013000064E05E02046E36807C82B439847103475
:10014000B442F7D3FFF7C0FF84030000940300001C
:100150000648008D0006000F012805D10448054916
:100160004860C8130449886170470000C00F00F060
:10017000DFFF07C000050040006C004070B5144868
:100180000068002822D01348406801210904084271
:100190001CD000200E4908600F4800680F4909680C
:1001A00040180D49086000240EE000BF0C480069AB
:1001B000E040C007C00F054614206043094A81187B
:1001C000284600F020F8641C082CEED370BD000017
:1001D0004081004000830040408500400000002036
:1001E000000500500800002002E008C8121F08C1E6
:1001F000002AFAD170477047002001E001C1121FA8
:10020000002AFBD17047002806D10A68002A0AD0CC
:100210000A68521E0A6006E00B690A689A4202D216
:100220000A68521C0A600A68002A01D14A6007E085
:100230000B690A689A4203D301224A600A690A607C
:10024000704770B504460D46164600202060606079
:10025000A560E660A9B2B2B2514308467D21C9004B
:10026000FFF74EFF206170BD32480068410A3248F6
:10027000FFF746FF3149086000F068F808200121C7
:1002800081402F4A116000BF62B60020072102465C
:1002900008E093000524240707252D026419850032
:1002A0006351401C8842F4D900BF08200F2109E0A7
:1002B000012205231B07072424021B1984001A515D
:1002C000421C10468842F3D900BF00201D494860F7
:1002D000002408E0142161431B4A88183C22322183
:1002E000FFF7AFFF641C082CF4D322E000211EE0CE
:1002F0000846083014234B43134C1B195B68002B32
:1003000001D1012300E000231A46002A06D100BFD4
:10031000012383400B4CE36000BF06E000BF0123D4
:100320008340084CA36000BF00BF00BF491C0829E0
:10033000DED3DBE7040000200024F40000000020EE
:1003400000E100E0000500500800002000200949FD
:1003500048600920086102208860C003064948609F
:1003600006480068034940310860012004490860DC
:10037000704700000085004000830040000000201E
:1003800000800040940300000000002008000000EE
:0C039000E8010000000000000024F40060
:04000005000000C136
:00000001FF
