:020000040000FA
:1000000000080020F50000000701000009010000C1
:1000100000000000000000000000000000000000E0
:100020000000000000000000000000000B010000C4
:1000300000000000000000000D0100000F010000A2
:100040001101000011010000110100001101000068
:10005000110100000000000011010000110100006A
:100060001101000011010000110100001101000048
:100070001101000011010000110100001101000038
:100080001101000011010000110100001101000028
:100090001101000011010000110100001101000018
:1000A000110100001101000000000000000000002C
:1000B0000000000000000000000000000000000040
:1000C0000348854600F02CF8004800477101000005
:1000D00000080020401E00BF00BF00BF00BF00BFDF
:1000E00000BF00BF00BF00BF00BF00BF00BFF1D115
:1000F00070470000074802680F210A430260064863
:10010000804706480047FEE7FEE7FEE7FEE7FEE71A
:10011000FEE700002405004045010000C10000008A
:10012000064C0125064E05E02046E36807C82B4330
:1001300098471034B442F7D3FFF7C6FF24020000FB
:10014000240200000648008D0006000F012805D19A
:10015000044805494860C813044988617047000095
:10016000C00F00F0DFFF07C000050040006C00403A
:1001700000241321122000F047F8042000F034F886
:10018000072000F031F80721002000F03DF8802121
:10019000002000F033F817E0A01C01228240D1B209
:1001A000022000F02BF8002008490A5C1146FF20CD
:1001B00041400D46002000F021F8601CC407E40F08
:1001C0007D20C00000F004F8E6E7000010050050B4
:1001D00010B5044603E0641E0248FFF77BFF002CC5
:1001E000F9D110BDE7030000012105221207072302
:1001F0001B02D2188300D15070470000014A1154ED
:1002000000BF70470405005010B508E00122052327
:100210001B07072424021B1984001A51401C884222
:04022000F4D910BD40
:04000005000000C136
:00000001FF
