:020000040000FA
:1000000010080020F50000000701000009010000B1
:1000100000000000000000000000000000000000E0
:100020000000000000000000000000000B010000C4
:1000300000000000000000000D0100000F010000A2
:100040001101000011010000110100001101000068
:10005000110100000000000011010000110100006A
:100060009D010000110100001101000011010000BC
:100070001101000011010000110100001101000038
:100080001101000011010000110100001101000028
:100090001101000011010000110100001101000018
:1000A000110100001101000000000000000000002C
:1000B0000000000000000000000000000000000040
:1000C0000348854600F042F80048004789020000D6
:1000D00010080020401E00BF00BF00BF00BF00BFCF
:1000E00000BF00BF00BF00BF00BF00BF00BFF1D115
:1000F00070470000074802680F210A430260064863
:10010000804706480047FEE7FEE7FEE7FEE7FEE71A
:10011000FEE700002405004071010000C10000005E
:1001200030B50B46014600202022012409E00D468F
:10013000D5409D4205D31D469540491B2546954017
:1001400040191546521E002DF1DC30BD064C01252C
:10015000064E05E02046E36807C82B439847103455
:10016000B442F7D3FFF7B0FFD0040000E004000072
:100170000648008D0006000F012805D104480549F6
:100180004860C8130449886170470000C00F00F040
:10019000DFFF07C000050040006C004070B5194843
:1001A000006800282CD01848406801210904084242
:1001B00026D00020134908601448006814490968D3
:1001C00040181249086013480068002803D1012034
:1001D0001049086004E00F480068401E0D4908609F
:1001E000002420460C490A5C1146FF2041400D4680
:1001F0002A46214608480C3800F04CF900BF00BFE1
:1002000070BD0000408100400083004040850040F8
:1002100008000020000000201005005030B4744693
:10022000641E2578641CAB4204D3635D5B00E31855
:1002300030BC18471D46F8E702E008C8121F08C185
:10024000002AFAD170477047002001E001C1121F57
:10025000002AFBD17047000001460022002905D189
:10026000084802780020074B187007E0054800781E
:100270000123184302460220024B18709007800F9A
:1002800070470000040000200024002604250420FC
:1002900000F0D4F8072000F0D1F8062000F0CEF8E6
:1002A0000321052000F0C0F80321012000F0BCF874
:1002B0000321082000F0B8F852480068410A52486B
:1002C000FFF72EFF5149086000F0E6F8802100207A
:1002D00000F0D4F81021002000F0C4F8052000F050
:1002E000B7F8C7B23846FFF7B7FF064689E0642083
:1002F00000F08EF8601CC4B2052000F0A9F8C7B267
:100300003846FFF7A9FF0646002E06D0012E05D07D
:10031000022E04D0032E09D107E007E006E0681C96
:10032000C5B2062D00DB002500E000BF00BF2B009A
:10033000FFF774FF0604111E2B384F668021002042
:1003400000F090F81021002000F08CF840210020EF
:1003500000F094F854E08021002000F08FF8102184
:10036000002000F07FF84021002000F07BF847E0FB
:100370008021002000F076F81021002000F07EF8A7
:100380004021002000F07AF83AE08021002000F0BF
:1003900075F81021002000F071F84021002000F0D5
:1003A00061F82DE02007000F06D1802100F066F8EB
:1003B0001021002000F062F82007000F082807D164
:1003C0008021002000F04EF81021002000F04AF8B3
:1003D00016E02007000F06D1802100F04FF8102111
:1003E000002000F03FF82007000F082807D18021E7
:1003F000002000F037F81021002000F03FF800BF87
:1004000000BF74E70C0000200024F4000800002066
:1004100010B5044603E0641E0248FFF75BFE002CA3
:10042000F9D110BDE703000010B58A0005231B07B2
:10043000072424021B1984001A5110BD0121052232
:10044000120707231B02D2188300D1507047000007
:10045000014603480069C840C007C00F704700004C
:100460000005005070B504460D462A462146024854
:1004700000F010F870BD00000C05005070B5044687
:100480000D462A462146024800F004F870BD0000DF
:10049000080500504254704700200949486009206F
:1004A000086102208860C003064948600648006869
:1004B000034940310860012004490860704700008A
:1004C00000850040008300400800002000800040BC
:1004D000E0040000000000201000000038020000CE
:1004E0000000000000000000000000000024F400F4
:04000005000000C136
:00000001FF
